:100000000C9422010C943F010C943F010C943F018D
:100010000C943F010C943F010C943F010C943F0160
:100020000C943F010C943F010C943F010C943F0150
:100030000C943F010C9429060C943F010C943F0151
:100040000C943F010C943F010C943F010C943F0130
:100050000C943F010C943F010C943F010C943F0120
:100060000C943F010C943F01000000000000005F71
:1000700000000007000700147F147F14242A7F2A41
:100080001223130864623649552250000003000011
:10009000001C2241000041221C0014083E081408E4
:1000A000083E0808005030000008080808080060F2
:1000B00060000020100804023E5149453E00427F86
:1000C0004000625149494622414949361814127F7D
:1000D0001027454545393C4A494930017109050316
:1000E0003649494936064949291E0036360000007E
:1000F0005636000008142241001414141414004150
:100100002214080201510906324979413E7C12113C
:10011000127C417F4949363E41414122417F414164
:100120003E7F494949417F090909013E4141497AD8
:100130007F0808087F00417F41002040413F017F48
:10014000081422417F404040407F020C027F7F0420
:1001500008107F3E4141413E7F090909063E415159
:10016000215E7F09192946264949493201017F014B
:10017000013F4040403F1F2040201F3F4038403F4C
:100180006314081463070870080761514945430068
:100190007F41410002040810200041417F00040219
:1001A0000102044040404040000102040020545439
:1001B00054787F48444438384444442038444448C0
:1001C0007F3854545418087E090102085454543C92
:1001D0007F0804047800487D40002040443D007FB3
:1001E0001028440000417F40007C047804787C089B
:1001F00004047838444444387C1414140808141453
:10020000187C7C080404084854545420043F44409B
:10021000203C4040207C1C2040201C3C4030403C86
:1002200044281028440C5050503C4464544C440022
:100230000836410000007F00000041360800100829
:100240000810080011241FBECFEFD8E0DEBFCDBFDD
:1002500011E0A0E0B1E0ECEDFCE002C005900D92F1
:10026000A830B107D9F728E0A8E0B1E001C01D929D
:10027000A639B207E1F70E9450060C946C060C9464
:10028000000080910C0190910D0120919408281795
:100290001906C1F41092100110920F018091110102
:1002A00080930E0185EA91E090930A018093090101
:1002B00080910C0190910D01019690930D01809316
:1002C0000C01089520910C0130910D01809192084C
:1002D000909193082817390759F780E791E0E4CF08
:1002E00020910C0130910D0180919208909193081A
:1002F00028173907A4F08CEA93E090938900809343
:10030000880010920D0110920C0180910C019091C7
:100310000D01019690930D0180930C010895809139
:100320000C0190910D0120910B012817190669F716
:100330008AE490E0909389008093880081E491E0C2
:1003400090930A0180930901E0CF0F93CF93DF933D
:1003500030918400209195082A50231B2350F0F7F8
:100360002D5F19F02A9511F001C00000C0910F0116
:10037000D0911001A2E1B1E084E190E0AC0FBD1F8B
:1003800002C0000C0BB80D9000000BB8000000007C
:10039000000C0BB800000000000C0BB800000000BF
:1003A000000C0BB800000000000C0BB800000000AF
:1003B000000C0BB80000000C8A950BB811F7000078
:1003C000000C0BB80000000000005F9890910E0137
:1003D0008091110191112CC080930E016496D093ED
:1003E0001001C0930F0120910C0130910D01A90162
:1003F0004F5F5F4F50930D0140930C0190E00196C9
:1004000060E6689FA001699F500D112480919408B7
:10041000840F952F911D2817390731F481E491E05D
:1004200090930A0180930901DF91CF910F91089574
:10043000915090930E01D7CF97FF03C0919581956E
:1004400091090895579A5F98219A299A92EC90936E
:10045000800099E1909381008823A1F181E080934D
:1004600011018CE38093940887EC8093950887E0D2
:1004700080930B0188E391E0909393088093920816
:100480008FEF93E0909387008093860021E0209384
:100490000E018AE490E09093890080938800809117
:1004A000920890919308019690930D0180930C010E
:1004B00080E791E090930A018093090120936F00F7
:1004C0007894089581E0809311018BE280939408E1
:1004D0008FEB8093950883E080930B0186E091E099
:1004E000909393088093920887EF93E0CBCF9091FD
:1004F00008019130E9F0923099F1911118C0E82F7C
:10050000E695E695E69594E1699FB0011124E60F22
:10051000F72FF11DEE5EFE4F87702FE73FEF02C011
:10052000359527958A95E2F7808182238083089507
:10053000E82FE695E695E69594E1699FB0011124D0
:10054000E60FF72FF11DEE5EFE4F877020E830E0DA
:1005500002C0359527958A95E2F78081822BE6CFF8
:10056000E82FE695E695E69594E1699FB0011124A0
:10057000E60FF72FF11DEE5EFE4F877020E830E0AA
:1005800002C0359527958A95E2F780818227CECFE4
:10059000809308010895803A20F4603610F40C949A
:1005A00077020895803AE8F46036D8F4E82FE695AB
:1005B000E695E695F0E0EE5EFE4F94E1699FE00D72
:1005C000F11D1124208130E0877040E850E002C026
:1005D000559547958A95E2F72423352381E0232B0F
:1005E00009F480E00895809108018130C1F08230E3
:1005F00051F0811107C0E2E1F1E0819398E0E23926
:10060000F907D9F70895E2E1F1E08191DF0111974F
:1006100080958C9388E0E239F807B9F708958FEF59
:10062000EACFFF920F931F93CF93DF93F82EC62F3D
:10063000142FD22F082F8FE98F1508F40FE9C03639
:1006400008F0CFE5103A08F01FE9D03608F0DFE5F2
:10065000CD1770F08FEF80931201DF91CF911F9132
:100660000F91FF9008956C2F802F0E9477020F5FEB
:100670000117C8F3CF5F0F2DEBCF2F923F924F9210
:100680005F926F927F928F929F92AF92BF92CF9222
:10069000DF92EF92FF920F931F93CF93DF9300D0DF
:1006A0000F92CDB7DEB7682E762E6A017A0121E06F
:1006B000E21AF108CC0CDD1C81E090E08C199D0958
:1006C0009B838A8388248394912CAA24A394B12C9D
:1006D00010E000E0E016F106B4F40F900F900F90D8
:1006E000DF91CF911F910F91FF90EF90DF90CF900E
:1006F000BF90AF909F908F907F906F905F904F9042
:100700003F902F900895372C300E632D962D9E0D1F
:100710009983892F0E94CB02472C4E0C642D562CB6
:10072000500E852D0E94CB02642D462C401A842D3C
:100730000E94CB02632D362C3E18832D0E94CB02E3
:10074000272C201A622D832D0E94CB02372C3E18B5
:10075000632D842D0E94CB02632D852D0E94CB0238
:10076000622D89810E94CB022A813B8112161306D9
:100770007CF00F5F1F4F280D391D3B832A8332E029
:10078000830E911C8A819B81181619060CF0A2CF4A
:1007900091E0E91AF10822E0A20EB11CC5018C1902
:1007A0009D092A813B81280F391F3B832A8392CFE1
:1007B0001F93CF93DF93C82F162FD42F803A28F49E
:1007C000603618F4D80FD03A48F0DF91CF911F91DE
:1007D0000895612F8C2F0E947702CF5FCD17C8F349
:1007E000F4CF1F93CF93DF93182FC62FD42F803AC7
:1007F00028F4603618F4D60FD03648F0DF91CF9148
:100800001F9108956C2F812F0E947702CF5FCD1723
:10081000C8F3F4CF2F923F924F925F926F927F92E4
:100820008F929F92AF92BF92CF92DF92EF92FF9200
:100830000F931F93CF93DF9300D000D0CDB7DEB7D7
:100840007C018B013A0129016A01C81AD90AD7FE35
:1008500003C0D194C194D108E614F7040CF44BC042
:100860002FEF3FEF3A8329834201801A910A97FEC6
:1008700003C091948194910822242A94322C041567
:1008800015051CF422242394312C8C149D04C4F1EE
:1008900022273327281939093C832B8337FF04C0CB
:1008A0002F5F3F4F3C832B838B819C819595879550
:1008B0009C838B83AA24BB24AC18BD08E614F704E0
:1008C00019F00415150511F50F900F900F900F906A
:1008D000DF91CF911F910F91FF90EF90DF90CF901C
:1008E000BF90AF909F908F907F906F905F904F9050
:1008F0003F902F90089581E090E09A838983B4CF50
:100900009601359527953C832B83D4CF602F8E2D70
:100910000E94CB028B819C81A816B90694F4881999
:10092000990929813A81E20EF31E2B813C81281519
:10093000390524F48C0D9D1D020D131D9C838B83A2
:10094000BDCF8B819C81F1CFAF92BF92CF92DF92CE
:10095000EF92FF920F931F93CF93DF93062F95E0B3
:10096000980F903AD0F497E0960F9036B0F440523A
:10097000550B95E0949F9001959F300D1124A9018E
:1009800048595F4F7A01C1E08B3F08F4C6E0182F49
:100990001C0FC12ECC1AC15059F4DF91CF911F9179
:1009A0000F91FF90EF90DF90CF90BF90AF900895A0
:1009B000F701A490D1E0093F08F4D8E0DD24D394F6
:1009C000B02EBD0E6B2D6D1BD15021F4FFEFEF1A31
:1009D000FF0ADFCF8D2D8A2119F08C2D0E9477021E
:1009E000DD0CF0CF0F931F93CF93DF93C82FD62F3B
:1009F0008A01F80141918F01411105C0DF91CF912A
:100A00001F910F9108956D2F8C2F0E94A404CA5F2F
:100A1000F0CF8F929F92BF92CF92DF92EF92FF9290
:100A20000F931F93CF93DF93EC01E62EF42EB22E9B
:100A30006C01C00ED11E162FCC15DD0560F0DF91C4
:100A4000CF911F910F91FF90EF90DF90CF90BF90CB
:100A50009F908F90089587E0882E912C01E08881E7
:100A6000802321F06F2D812F0E9477021F5F1B11C1
:100A700002C0F3941E2D000F81E0881A910879F7C7
:100A80002196DACF2F923F925F926F927F928F9250
:100A90009F92AF92BF92CF92DF92EF92FF920F930D
:100AA0001F93CF93DF936230E1F1A8F424E1829F9A
:100AB000F0011124611124C0EE5EFE4FA2E1B1E00D
:100AC00038E0E239F30709F048F481918D93EF01A2
:100AD00021971882F5CF633009F46AC0DF91CF9176
:100AE0001F910F91FF90EF90DF90CF90BF90AF904C
:100AF0009F908F907F906F905F903F902F90089580
:100B000082E998E0DC01AE1BBF0BFD01DC01C1E016
:100B1000E231FC0718F380818C9310821197319792
:100B2000F6CF182F177042E151E08695869586958D
:100B300090E08E5E9E4F64E271E0E8E0F0E0E11B41
:100B4000F1097A01EC012881A22F012E01C0AA0F20
:100B50000A94EAF76C177D07D0F49A012D5E3F4F97
:100B60002817390710F1281B390BEC01C20FD31FCE
:100B70001882240F351FE901A8834C5E5F4F44960D
:100B80006C5E7F4FD8E042395D07D9F6A7CF199246
:100B9000288130E00E2E02C0359527950A94E2F7A1
:100BA0002A2BD7012D937D01CECF30E020E0DDCF81
:100BB000E82FE7705E2E86958695869590E0A5E2F3
:100BC000B1E042E151E023E1222E21E0322E32E970
:100BD000832E38E0932E28E030E039016E1A710838
:100BE0007C01F3E1EF1AF108BD01681B790B6A0182
:100BF0004C5E5F4F8A01FB01A080B12C052C02C026
:100C0000B594A7940A94E2F7E215F305B0F49701BE
:100C10006C157D0510F430E020E0620F731FFB01BE
:100C200010822A0F3B1FE901A8825496D4E12D0EB1
:100C3000311C84169506C1F651CF10822291062CE4
:100C400001C0220F0A94EAF72A29E8012A938E01AB
:100C5000D3CF1F920F920FB60F9211242F933F9371
:100C60004F935F936F937F938F939F93AF93BF93B4
:100C7000EF93FF93E0910901F0910A010995FF912B
:100C8000EF91BF91AF919F918F917F916F915F9104
:100C90004F913F912F910F900FBE0F901F9018957D
:100CA00080E00E9422020E94F30228E248E264E10E
:100CB00084E10E94110330E020E04FE750E06FE54F
:100CC00070E090E080E00E940A0440E051E066E4B9
:0C0CD0008AE00E94F204FFCFF894FFCFEE
:080CDC0048656C6C6F210000FB
:00000001FF
